{
  "contractName": "SolarCoin",
  "abi": [
    {
      "inputs": [],
      "payable": false,
      "stateMutability": "nonpayable",
      "type": "constructor",
      "signature": "constructor"
    },
    {
      "constant": false,
      "inputs": [
        {
          "name": "generated",
          "type": "uint256"
        },
        {
          "name": "consumed",
          "type": "uint256"
        }
      ],
      "name": "report",
      "outputs": [
        {
          "name": "amount",
          "type": "uint256"
        }
      ],
      "payable": false,
      "stateMutability": "nonpayable",
      "type": "function",
      "signature": "0x753c0985"
    },
    {
      "constant": false,
      "inputs": [
        {
          "name": "receiver",
          "type": "address"
        },
        {
          "name": "amount",
          "type": "uint256"
        }
      ],
      "name": "sendCoin",
      "outputs": [
        {
          "name": "sufficient",
          "type": "bool"
        }
      ],
      "payable": false,
      "stateMutability": "nonpayable",
      "type": "function",
      "signature": "0x90b98a11"
    },
    {
      "constant": true,
      "inputs": [],
      "name": "getTotalConsumed",
      "outputs": [
        {
          "name": "",
          "type": "uint256"
        }
      ],
      "payable": false,
      "stateMutability": "view",
      "type": "function",
      "signature": "0x94d9da37"
    },
    {
      "constant": true,
      "inputs": [],
      "name": "getTotalGenerated",
      "outputs": [
        {
          "name": "",
          "type": "uint256"
        }
      ],
      "payable": false,
      "stateMutability": "view",
      "type": "function",
      "signature": "0x0a25f66c"
    },
    {
      "constant": true,
      "inputs": [
        {
          "name": "addr",
          "type": "address"
        }
      ],
      "name": "getBalance",
      "outputs": [
        {
          "name": "",
          "type": "uint256"
        }
      ],
      "payable": false,
      "stateMutability": "view",
      "type": "function",
      "signature": "0xf8b2cb4f"
    }
  ],
  "bytecode": "0x608060405234801561001057600080fd5b50336000806101000a81548173ffffffffffffffffffffffffffffffffffffffff021916908373ffffffffffffffffffffffffffffffffffffffff160217905550610503806100606000396000f3fe60806040526004361061006d576000357c0100000000000000000000000000000000000000000000000000000000900463ffffffff1680630a25f66c14610072578063753c09851461009d57806390b98a11146100f657806394d9da3714610169578063f8b2cb4f14610194575b600080fd5b34801561007e57600080fd5b506100876101f9565b6040518082815260200191505060405180910390f35b3480156100a957600080fd5b506100e0600480360360408110156100c057600080fd5b810190808035906020019092919080359060200190929190505050610203565b6040518082815260200191505060405180910390f35b34801561010257600080fd5b5061014f6004803603604081101561011957600080fd5b81019080803573ffffffffffffffffffffffffffffffffffffffff1690602001909291908035906020019092919050505061038d565b604051808215151515815260200191505060405180910390f35b34801561017557600080fd5b5061017e610484565b6040518082815260200191505060405180910390f35b3480156101a057600080fd5b506101e3600480360360208110156101b757600080fd5b81019080803573ffffffffffffffffffffffffffffffffffffffff16906020019092919050505061048e565b6040518082815260200191505060405180910390f35b6000600154905090565b6000600460003373ffffffffffffffffffffffffffffffffffffffff1673ffffffffffffffffffffffffffffffffffffffff16815260200190815260200160002060000154600160008282540392505081905550600460003373ffffffffffffffffffffffffffffffffffffffff1673ffffffffffffffffffffffffffffffffffffffff16815260200190815260200160002060010154600260008282540392505081905550604080519081016040528084815260200183815250600460003373ffffffffffffffffffffffffffffffffffffffff1673ffffffffffffffffffffffffffffffffffffffff16815260200190815260200160002060008201518160000155602082015181600101559050508260016000828254019250508190555081600260008282540192505081905550600360003373ffffffffffffffffffffffffffffffffffffffff1673ffffffffffffffffffffffffffffffffffffffff168152602001908152602001600020600081548092919060010191905055506001905092915050565b600081600360003373ffffffffffffffffffffffffffffffffffffffff1673ffffffffffffffffffffffffffffffffffffffff1681526020019081526020016000205410156103df576000905061047e565b81600360003373ffffffffffffffffffffffffffffffffffffffff1673ffffffffffffffffffffffffffffffffffffffff1681526020019081526020016000206000828254039250508190555081600360008573ffffffffffffffffffffffffffffffffffffffff1673ffffffffffffffffffffffffffffffffffffffff16815260200190815260200160002060008282540192505081905550600190505b92915050565b6000600254905090565b6000600360008373ffffffffffffffffffffffffffffffffffffffff1673ffffffffffffffffffffffffffffffffffffffff16815260200190815260200160002054905091905056fea165627a7a7230582087c2f81e496fa7ed2434765493d482bb99d495dbfa9a8ed7a4d8a02fccc772f20029",
  "source": "pragma solidity >=0.4.25 <0.6.0;\n\ncontract SolarCoin {\n  address owner;\n  uint totalGenerated;\n  uint totalConsumed;\n\n  struct userStatistics {\n    uint generated;\n    uint consumed;\n  }\n\n  mapping (address => uint) balances;\n  mapping (address => userStatistics) stats;\n\n  constructor() public {\n    owner = msg.sender;\n  }\n\n  function report(uint generated, uint consumed) external returns(uint amount){\n    totalGenerated -= stats[msg.sender].generated;\n    totalConsumed -= stats[msg.sender].consumed;\n\n    stats[msg.sender] = userStatistics(generated, consumed);\n\n    totalGenerated += generated;\n    totalConsumed += consumed;\n\n    balances[msg.sender]++;\n    return 1;\n  }\n\n  function sendCoin(address receiver, uint amount) public returns(bool sufficient) {\n    if (balances[msg.sender] < amount) return false;\n    balances[msg.sender] -= amount;\n    balances[receiver] += amount;\n    return true;\n  }\n\n  function getTotalConsumed() public view returns(uint) {\n    return totalConsumed;\n  }\n\n  function getTotalGenerated() public view returns(uint) {\n    return totalGenerated;\n  }\n\n  function getBalance(address addr) public view returns(uint) {\n    return balances[addr];\n  }\n}\n",
  "sourcePath": "/home/rho/Documents/hackathon/project/blockchain/contracts/SolarCoin.sol",
  "compiler": {
    "name": "solc",
    "version": "0.5.0+commit.1d4f565a.Emscripten.clang"
  },
  "schemaVersion": "3.0.6",
  "updatedAt": "2019-04-12T11:23:47.881Z",
  "devdoc": {
    "methods": {}
  },
  "userdoc": {
    "methods": {}
  }
}