{
  "contractName": "SolarCoin",
  "abi": [
    {
      "inputs": [],
      "payable": false,
      "stateMutability": "nonpayable",
      "type": "constructor",
      "signature": "constructor"
    },
    {
      "constant": false,
      "inputs": [
        {
          "name": "_user",
          "type": "address"
        },
        {
          "name": "_generated",
          "type": "uint256"
        },
        {
          "name": "_consumed",
          "type": "uint256"
        }
      ],
      "name": "adminReport",
      "outputs": [
        {
          "name": "amount",
          "type": "uint256"
        }
      ],
      "payable": false,
      "stateMutability": "nonpayable",
      "type": "function",
      "signature": "0x37050f88"
    },
    {
      "constant": false,
      "inputs": [
        {
          "name": "_generated",
          "type": "uint256"
        },
        {
          "name": "_consumed",
          "type": "uint256"
        }
      ],
      "name": "report",
      "outputs": [
        {
          "name": "amount",
          "type": "uint256"
        }
      ],
      "payable": false,
      "stateMutability": "nonpayable",
      "type": "function",
      "signature": "0x753c0985"
    },
    {
      "constant": false,
      "inputs": [
        {
          "name": "receiver",
          "type": "address"
        },
        {
          "name": "amount",
          "type": "uint256"
        }
      ],
      "name": "sendCoin",
      "outputs": [
        {
          "name": "sufficient",
          "type": "bool"
        }
      ],
      "payable": false,
      "stateMutability": "nonpayable",
      "type": "function",
      "signature": "0x90b98a11"
    },
    {
      "constant": true,
      "inputs": [],
      "name": "getTotalConsumed",
      "outputs": [
        {
          "name": "",
          "type": "uint256"
        }
      ],
      "payable": false,
      "stateMutability": "view",
      "type": "function",
      "signature": "0x94d9da37"
    },
    {
      "constant": true,
      "inputs": [],
      "name": "getTotalGenerated",
      "outputs": [
        {
          "name": "",
          "type": "uint256"
        }
      ],
      "payable": false,
      "stateMutability": "view",
      "type": "function",
      "signature": "0x0a25f66c"
    },
    {
      "constant": true,
      "inputs": [
        {
          "name": "delta",
          "type": "uint256"
        }
      ],
      "name": "getGenerated",
      "outputs": [
        {
          "name": "",
          "type": "uint256"
        }
      ],
      "payable": false,
      "stateMutability": "view",
      "type": "function",
      "signature": "0x7fb621a6"
    },
    {
      "constant": true,
      "inputs": [
        {
          "name": "delta",
          "type": "uint256"
        }
      ],
      "name": "getConsumed",
      "outputs": [
        {
          "name": "",
          "type": "uint256"
        }
      ],
      "payable": false,
      "stateMutability": "view",
      "type": "function",
      "signature": "0x2f10c3d3"
    },
    {
      "constant": true,
      "inputs": [],
      "name": "getMyBalance",
      "outputs": [
        {
          "name": "",
          "type": "uint256"
        }
      ],
      "payable": false,
      "stateMutability": "view",
      "type": "function",
      "signature": "0x4c738909"
    },
    {
      "constant": true,
      "inputs": [],
      "name": "getHistoryLength",
      "outputs": [
        {
          "name": "",
          "type": "uint256"
        }
      ],
      "payable": false,
      "stateMutability": "view",
      "type": "function",
      "signature": "0x5478f468"
    }
  ],
  "bytecode": "0x60806040526000600155600060025534801561001a57600080fd5b50336000806101000a81548173ffffffffffffffffffffffffffffffffffffffff021916908373ffffffffffffffffffffffffffffffffffffffff160217905550610aa08061006a6000396000f3fe608060405260043610610099576000357c0100000000000000000000000000000000000000000000000000000000900463ffffffff1680630a25f66c1461009e5780632f10c3d3146100c957806337050f88146101185780634c738909146101915780635478f468146101bc578063753c0985146101e75780637fb621a61461024057806390b98a111461028f57806394d9da3714610302575b600080fd5b3480156100aa57600080fd5b506100b361032d565b6040518082815260200191505060405180910390f35b3480156100d557600080fd5b50610102600480360360208110156100ec57600080fd5b8101908080359060200190929190505050610337565b6040518082815260200191505060405180910390f35b34801561012457600080fd5b5061017b6004803603606081101561013b57600080fd5b81019080803573ffffffffffffffffffffffffffffffffffffffff16906020019092919080359060200190929190803590602001909291905050506104a0565b6040518082815260200191505060405180910390f35b34801561019d57600080fd5b506101a6610511565b6040518082815260200191505060405180910390f35b3480156101c857600080fd5b506101d1610558565b6040518082815260200191505060405180910390f35b3480156101f357600080fd5b5061022a6004803603604081101561020a57600080fd5b8101908080359060200190929190803590602001909291905050506105a2565b6040518082815260200191505060405180910390f35b34801561024c57600080fd5b506102796004803603602081101561026357600080fd5b81019080803590602001909291905050506105b7565b6040518082815260200191505060405180910390f35b34801561029b57600080fd5b506102e8600480360360408110156102b257600080fd5b81019080803573ffffffffffffffffffffffffffffffffffffffff16906020019092919080359060200190929190505050610720565b604051808215151515815260200191505060405180910390f35b34801561030e57600080fd5b50610317610817565b6040518082815260200191505060405180910390f35b6000600154905090565b600081600460003373ffffffffffffffffffffffffffffffffffffffff1673ffffffffffffffffffffffffffffffffffffffff16815260200190815260200160002080549050811015156103f3576040517f08c379a00000000000000000000000000000000000000000000000000000000081526004018080602001828103825260148152602001807f4e6f20486973746f72792074686174204661722100000000000000000000000081525060200191505060405180910390fd5b600460003373ffffffffffffffffffffffffffffffffffffffff1673ffffffffffffffffffffffffffffffffffffffff16815260200190815260200160002060018401600460003373ffffffffffffffffffffffffffffffffffffffff1673ffffffffffffffffffffffffffffffffffffffff168152602001908152602001600020805490500381548110151561048657fe5b906000526020600020906002020160010154915050919050565b60008060009054906101000a900473ffffffffffffffffffffffffffffffffffffffff1673ffffffffffffffffffffffffffffffffffffffff163373ffffffffffffffffffffffffffffffffffffffff161415156104fd57600080fd5b610508848484610821565b90509392505050565b6000600360003373ffffffffffffffffffffffffffffffffffffffff1673ffffffffffffffffffffffffffffffffffffffff16815260200190815260200160002054905090565b6000600460003373ffffffffffffffffffffffffffffffffffffffff1673ffffffffffffffffffffffffffffffffffffffff16815260200190815260200160002080549050905090565b60006105af338484610821565b905092915050565b600081600460003373ffffffffffffffffffffffffffffffffffffffff1673ffffffffffffffffffffffffffffffffffffffff1681526020019081526020016000208054905081101515610673576040517f08c379a00000000000000000000000000000000000000000000000000000000081526004018080602001828103825260148152602001807f4e6f20486973746f72792074686174204661722100000000000000000000000081525060200191505060405180910390fd5b600460003373ffffffffffffffffffffffffffffffffffffffff1673ffffffffffffffffffffffffffffffffffffffff16815260200190815260200160002060018401600460003373ffffffffffffffffffffffffffffffffffffffff1673ffffffffffffffffffffffffffffffffffffffff168152602001908152602001600020805490500381548110151561070657fe5b906000526020600020906002020160000154915050919050565b600081600360003373ffffffffffffffffffffffffffffffffffffffff1673ffffffffffffffffffffffffffffffffffffffff1681526020019081526020016000205410156107725760009050610811565b81600360003373ffffffffffffffffffffffffffffffffffffffff1673ffffffffffffffffffffffffffffffffffffffff1681526020019081526020016000206000828254039250508190555081600360008573ffffffffffffffffffffffffffffffffffffffff1673ffffffffffffffffffffffffffffffffffffffff16815260200190815260200160002060008282540192505081905550600190505b92915050565b6000600254905090565b600080600460008673ffffffffffffffffffffffffffffffffffffffff1673ffffffffffffffffffffffffffffffffffffffff168152602001908152602001600020805490509050600081111561095357600460008673ffffffffffffffffffffffffffffffffffffffff1673ffffffffffffffffffffffffffffffffffffffff168152602001908152602001600020600182038154811015156108c157fe5b906000526020600020906002020160000154600160008282540392505081905550600460008673ffffffffffffffffffffffffffffffffffffffff1673ffffffffffffffffffffffffffffffffffffffff1681526020019081526020016000206001820381548110151561093157fe5b9060005260206000209060020201600101546002600082825403925050819055505b600460008673ffffffffffffffffffffffffffffffffffffffff1673ffffffffffffffffffffffffffffffffffffffff1681526020019081526020016000206040805190810160405280868152602001858152509080600181540180825580915050906001820390600052602060002090600202016000909192909190915060008201518160000155602082015181600101555050508360016000828254019250508190555082600260008282540192505081905550600083850390506000811315610a675780600360008873ffffffffffffffffffffffffffffffffffffffff1673ffffffffffffffffffffffffffffffffffffffff168152602001908152602001600020600082825401925050819055505b606492505050939250505056fea165627a7a72305820b260320d25b00fea5e5292ae15f895a3b08b360aa0f57f2ae0acd43e56f3ea1d0029",
  "source": "pragma solidity >=0.4.25 <0.6.0;\n\ncontract SolarCoin {\n  address owner;\n  uint totalGenerated = 0;\n  uint totalConsumed = 0;\n\n  struct userStatistics {\n    uint generated;\n    uint consumed;\n  }\n\n  mapping (address => uint) balances;\n  mapping (address => userStatistics[]) stats;\n\n  constructor() public {\n    owner = msg.sender;\n  }\n\n  modifier isAdmin() {\n    require(msg.sender == owner);\n    _;\n  }\n\n  modifier hasHistory(uint delta) {\n    require(delta < stats[msg.sender].length, \"No History that Far!\");\n    _;\n  }\n\n  function update(address _user, uint _generated, uint _consumed) private returns(uint amount) {\n    uint length = stats[_user].length;\n\n    if (length > 0) {\n      totalGenerated -= stats[_user][length - 1].generated;\n      totalConsumed -= stats[_user][length - 1].consumed;\n    }\n\n    stats[_user].push(userStatistics(_generated, _consumed));\n\n    totalGenerated += _generated;\n    totalConsumed += _consumed;\n\n    int awardedCoins = int(_generated) - int(_consumed);\n    if (awardedCoins > 0) {\n      balances[_user] += uint(awardedCoins);\n    }\n    return 100;\n  }\n\n  function adminReport(address _user, uint _generated, uint _consumed) public isAdmin returns(uint amount){\n    return update(_user, _generated, _consumed);\n  }\n\n  function report(uint _generated, uint _consumed) public returns(uint amount){\n    return update(msg.sender, _generated, _consumed);\n  }\n\n  function sendCoin(address receiver, uint amount) public returns(bool sufficient) {\n    if (balances[msg.sender] < amount) return false;\n    balances[msg.sender] -= amount;\n    balances[receiver] += amount;\n    return true;\n  }\n\n  function getTotalConsumed() public view returns(uint) {\n    return totalConsumed;\n  }\n\n  function getTotalGenerated() public view returns(uint) {\n    return totalGenerated;\n  }\n\n  function getGenerated(uint delta) public view hasHistory(delta) returns(uint) {\n    return stats[msg.sender][stats[msg.sender].length - (delta + 1)].generated;\n  }\n\n  function getConsumed(uint delta) public view hasHistory(delta) returns(uint) {\n    return stats[msg.sender][stats[msg.sender].length - (delta + 1)].consumed;\n  }\n\n  function getMyBalance() public view returns(uint) {\n    return balances[msg.sender];\n  }\n\n  function getHistoryLength() public view returns(uint) {\n    return stats[msg.sender].length;\n  }\n}\n",
  "sourcePath": "/home/rho/Documents/hackathon/project/client/src/blockchain/contracts/SolarCoin.sol",
  "compiler": {
    "name": "solc",
    "version": "0.5.0+commit.1d4f565a.Emscripten.clang"
  },
  "schemaVersion": "3.0.6",
  "updatedAt": "2019-04-13T14:09:27.238Z",
  "devdoc": {
    "methods": {}
  },
  "userdoc": {
    "methods": {}
  }
}