{
  "contractName": "SolarCoin",
  "abi": [
    {
      "inputs": [],
      "payable": false,
      "stateMutability": "nonpayable",
      "type": "constructor",
      "signature": "constructor"
    },
    {
      "constant": false,
      "inputs": [
        {
          "name": "_user",
          "type": "address"
        },
        {
          "name": "_generated",
          "type": "uint256"
        },
        {
          "name": "_consumed",
          "type": "uint256"
        }
      ],
      "name": "adminReport",
      "outputs": [
        {
          "name": "amount",
          "type": "uint256"
        }
      ],
      "payable": false,
      "stateMutability": "nonpayable",
      "type": "function",
      "signature": "0x37050f88"
    },
    {
      "constant": false,
      "inputs": [
        {
          "name": "_generated",
          "type": "uint256"
        },
        {
          "name": "_consumed",
          "type": "uint256"
        }
      ],
      "name": "report",
      "outputs": [
        {
          "name": "amount",
          "type": "uint256"
        }
      ],
      "payable": false,
      "stateMutability": "nonpayable",
      "type": "function",
      "signature": "0x753c0985"
    },
    {
      "constant": false,
      "inputs": [
        {
          "name": "receiver",
          "type": "address"
        },
        {
          "name": "amount",
          "type": "uint256"
        }
      ],
      "name": "sendCoin",
      "outputs": [
        {
          "name": "sufficient",
          "type": "bool"
        }
      ],
      "payable": false,
      "stateMutability": "nonpayable",
      "type": "function",
      "signature": "0x90b98a11"
    },
    {
      "constant": true,
      "inputs": [],
      "name": "getTotalConsumed",
      "outputs": [
        {
          "name": "",
          "type": "uint256"
        }
      ],
      "payable": false,
      "stateMutability": "view",
      "type": "function",
      "signature": "0x94d9da37"
    },
    {
      "constant": true,
      "inputs": [],
      "name": "getTotalGenerated",
      "outputs": [
        {
          "name": "",
          "type": "uint256"
        }
      ],
      "payable": false,
      "stateMutability": "view",
      "type": "function",
      "signature": "0x0a25f66c"
    },
    {
      "constant": true,
      "inputs": [],
      "name": "getCurrentGenerated",
      "outputs": [
        {
          "name": "",
          "type": "uint256"
        }
      ],
      "payable": false,
      "stateMutability": "view",
      "type": "function",
      "signature": "0x45dc7910"
    },
    {
      "constant": true,
      "inputs": [],
      "name": "getCurrentConsumed",
      "outputs": [
        {
          "name": "",
          "type": "uint256"
        }
      ],
      "payable": false,
      "stateMutability": "view",
      "type": "function",
      "signature": "0xca7e77f5"
    },
    {
      "constant": true,
      "inputs": [],
      "name": "getMyBalance",
      "outputs": [
        {
          "name": "",
          "type": "uint256"
        }
      ],
      "payable": false,
      "stateMutability": "view",
      "type": "function",
      "signature": "0x4c738909"
    },
    {
      "constant": true,
      "inputs": [],
      "name": "getArrayLength",
      "outputs": [
        {
          "name": "",
          "type": "uint256"
        }
      ],
      "payable": false,
      "stateMutability": "view",
      "type": "function",
      "signature": "0x0849cc99"
    }
  ],
  "bytecode": "0x60806040526000600155600060025534801561001a57600080fd5b50336000806101000a81548173ffffffffffffffffffffffffffffffffffffffff021916908373ffffffffffffffffffffffffffffffffffffffff1602179055506108c98061006a6000396000f3fe608060405260043610610099576000357c0100000000000000000000000000000000000000000000000000000000900463ffffffff1680630849cc991461009e5780630a25f66c146100c957806337050f88146100f457806345dc79101461016d5780634c73890914610198578063753c0985146101c357806390b98a111461021c57806394d9da371461028f578063ca7e77f5146102ba575b600080fd5b3480156100aa57600080fd5b506100b36102e5565b6040518082815260200191505060405180910390f35b3480156100d557600080fd5b506100de61032f565b6040518082815260200191505060405180910390f35b34801561010057600080fd5b506101576004803603606081101561011757600080fd5b81019080803573ffffffffffffffffffffffffffffffffffffffff1690602001909291908035906020019092919080359060200190929190505050610339565b6040518082815260200191505060405180910390f35b34801561017957600080fd5b506101826103aa565b6040518082815260200191505060405180910390f35b3480156101a457600080fd5b506101ad610454565b6040518082815260200191505060405180910390f35b3480156101cf57600080fd5b50610206600480360360408110156101e657600080fd5b81019080803590602001909291908035906020019092919050505061049b565b6040518082815260200191505060405180910390f35b34801561022857600080fd5b506102756004803603604081101561023f57600080fd5b81019080803573ffffffffffffffffffffffffffffffffffffffff169060200190929190803590602001909291905050506104b0565b604051808215151515815260200191505060405180910390f35b34801561029b57600080fd5b506102a46105a7565b6040518082815260200191505060405180910390f35b3480156102c657600080fd5b506102cf6105b1565b6040518082815260200191505060405180910390f35b6000600460003373ffffffffffffffffffffffffffffffffffffffff1673ffffffffffffffffffffffffffffffffffffffff16815260200190815260200160002080549050905090565b6000600154905090565b60008060009054906101000a900473ffffffffffffffffffffffffffffffffffffffff1673ffffffffffffffffffffffffffffffffffffffff163373ffffffffffffffffffffffffffffffffffffffff1614151561039657600080fd5b6103a184848461065b565b90509392505050565b6000600460003373ffffffffffffffffffffffffffffffffffffffff1673ffffffffffffffffffffffffffffffffffffffff1681526020019081526020016000206001600460003373ffffffffffffffffffffffffffffffffffffffff1673ffffffffffffffffffffffffffffffffffffffff168152602001908152602001600020805490500381548110151561043d57fe5b906000526020600020906002020160000154905090565b6000600360003373ffffffffffffffffffffffffffffffffffffffff1673ffffffffffffffffffffffffffffffffffffffff16815260200190815260200160002054905090565b60006104a833848461065b565b905092915050565b600081600360003373ffffffffffffffffffffffffffffffffffffffff1673ffffffffffffffffffffffffffffffffffffffff16815260200190815260200160002054101561050257600090506105a1565b81600360003373ffffffffffffffffffffffffffffffffffffffff1673ffffffffffffffffffffffffffffffffffffffff1681526020019081526020016000206000828254039250508190555081600360008573ffffffffffffffffffffffffffffffffffffffff1673ffffffffffffffffffffffffffffffffffffffff16815260200190815260200160002060008282540192505081905550600190505b92915050565b6000600254905090565b6000600460003373ffffffffffffffffffffffffffffffffffffffff1673ffffffffffffffffffffffffffffffffffffffff1681526020019081526020016000206001600460003373ffffffffffffffffffffffffffffffffffffffff1673ffffffffffffffffffffffffffffffffffffffff168152602001908152602001600020805490500381548110151561064457fe5b906000526020600020906002020160010154905090565b600080600460008673ffffffffffffffffffffffffffffffffffffffff1673ffffffffffffffffffffffffffffffffffffffff168152602001908152602001600020805490509050600081111561078d57600460008673ffffffffffffffffffffffffffffffffffffffff1673ffffffffffffffffffffffffffffffffffffffff168152602001908152602001600020600182038154811015156106fb57fe5b906000526020600020906002020160000154600160008282540392505081905550600460008673ffffffffffffffffffffffffffffffffffffffff1673ffffffffffffffffffffffffffffffffffffffff1681526020019081526020016000206001820381548110151561076b57fe5b9060005260206000209060020201600101546002600082825403925050819055505b600460008673ffffffffffffffffffffffffffffffffffffffff1673ffffffffffffffffffffffffffffffffffffffff16815260200190815260200160002060408051908101604052808681526020018581525090806001815401808255809150509060018203906000526020600020906002020160009091929091909150600082015181600001556020820151816001015550505083600160008282540192505081905550826002600082825401925050819055506064600360008773ffffffffffffffffffffffffffffffffffffffff1673ffffffffffffffffffffffffffffffffffffffff168152602001908152602001600020600082825401925050819055506064915050939250505056fea165627a7a72305820c32a3257b4846d1b66d879a0e19e51517f1d1354f660d1491515a24664b147e60029",
  "source": "pragma solidity >=0.4.25 <0.6.0;\n\ncontract SolarCoin {\n  address owner;\n  uint totalGenerated = 0;\n  uint totalConsumed = 0;\n\n  struct userStatistics {\n    uint generated;\n    uint consumed;\n  }\n\n  mapping (address => uint) balances;\n  mapping (address => userStatistics[]) stats;\n\n  constructor() public {\n    owner = msg.sender;\n  }\n\n  modifier isAdmin() {\n    require(msg.sender == owner);\n    _;\n  }\n\n  function update(address _user, uint _generated, uint _consumed) private returns(uint amount) {\n    uint length = stats[_user].length;\n\n    if (length > 0) {\n      totalGenerated -= stats[_user][length - 1].generated;\n      totalConsumed -= stats[_user][length - 1].consumed;\n    }\n\n    stats[_user].push(userStatistics(_generated, _consumed));\n\n    totalGenerated += _generated;\n    totalConsumed += _consumed;\n\n    balances[_user] += 100;\n    return 100;\n  }\n\n  function adminReport(address _user, uint _generated, uint _consumed) public isAdmin returns(uint amount){\n    return update(_user, _generated, _consumed);\n  }\n\n  function report(uint _generated, uint _consumed) public returns(uint amount){\n    return update(msg.sender, _generated, _consumed);\n  }\n\n  function sendCoin(address receiver, uint amount) public returns(bool sufficient) {\n    if (balances[msg.sender] < amount) return false;\n    balances[msg.sender] -= amount;\n    balances[receiver] += amount;\n    return true;\n  }\n\n  function getTotalConsumed() public view returns(uint) {\n    return totalConsumed;\n  }\n\n  function getTotalGenerated() public view returns(uint) {\n    return totalGenerated;\n  }\n\n  function getCurrentGenerated() public view returns(uint) {\n    return stats[msg.sender][stats[msg.sender].length - 1].generated;\n  }\n\n  function getCurrentConsumed() public view returns(uint) {\n    return stats[msg.sender][stats[msg.sender].length - 1].consumed;\n  }\n\n  function getMyBalance() public view returns(uint) {\n    return balances[msg.sender];\n  }\n\n  function getArrayLength() public view returns(uint) {\n    return stats[msg.sender].length;\n  }\n}\n",
  "sourcePath": "/home/rho/Documents/hackathon/project/client/src/blockchain/contracts/SolarCoin.sol",
  "compiler": {
    "name": "solc",
    "version": "0.5.0+commit.1d4f565a.Emscripten.clang"
  },
  "schemaVersion": "3.0.6",
  "updatedAt": "2019-04-13T11:26:17.851Z",
  "devdoc": {
    "methods": {}
  },
  "userdoc": {
    "methods": {}
  }
}