{
  "contractName": "SolarCoin",
  "abi": [
    {
      "inputs": [],
      "payable": false,
      "stateMutability": "nonpayable",
      "type": "constructor"
    },
    {
      "constant": false,
      "inputs": [],
      "name": "register",
      "outputs": [],
      "payable": false,
      "stateMutability": "nonpayable",
      "type": "function"
    },
    {
      "constant": false,
      "inputs": [
        {
          "name": "_generated",
          "type": "uint256"
        },
        {
          "name": "_consumed",
          "type": "uint256"
        }
      ],
      "name": "report",
      "outputs": [
        {
          "name": "amount",
          "type": "uint256"
        }
      ],
      "payable": false,
      "stateMutability": "nonpayable",
      "type": "function"
    },
    {
      "constant": false,
      "inputs": [
        {
          "name": "receiver",
          "type": "address"
        },
        {
          "name": "amount",
          "type": "uint256"
        }
      ],
      "name": "sendCoin",
      "outputs": [
        {
          "name": "sufficient",
          "type": "bool"
        }
      ],
      "payable": false,
      "stateMutability": "nonpayable",
      "type": "function"
    },
    {
      "constant": true,
      "inputs": [],
      "name": "getTotalConsumed",
      "outputs": [
        {
          "name": "",
          "type": "uint256"
        }
      ],
      "payable": false,
      "stateMutability": "view",
      "type": "function"
    },
    {
      "constant": true,
      "inputs": [],
      "name": "getTotalGenerated",
      "outputs": [
        {
          "name": "",
          "type": "uint256"
        }
      ],
      "payable": false,
      "stateMutability": "view",
      "type": "function"
    },
    {
      "constant": true,
      "inputs": [],
      "name": "getMyBalance",
      "outputs": [
        {
          "name": "",
          "type": "uint256"
        }
      ],
      "payable": false,
      "stateMutability": "view",
      "type": "function"
    }
  ],
  "bytecode": "0x608060405234801561001057600080fd5b50336000806101000a81548173ffffffffffffffffffffffffffffffffffffffff021916908373ffffffffffffffffffffffffffffffffffffffff160217905550610701806100606000396000f3fe608060405260043610610078576000357c0100000000000000000000000000000000000000000000000000000000900463ffffffff1680630a25f66c1461007d5780631aa3a008146100a85780634c738909146100bf578063753c0985146100ea57806390b98a111461014357806394d9da37146101b6575b600080fd5b34801561008957600080fd5b506100926101e1565b6040518082815260200191505060405180910390f35b3480156100b457600080fd5b506100bd6101eb565b005b3480156100cb57600080fd5b506100d46102c9565b6040518082815260200191505060405180910390f35b3480156100f657600080fd5b5061012d6004803603604081101561010d57600080fd5b81019080803590602001909291908035906020019092919050505061036b565b6040518082815260200191505060405180910390f35b34801561014f57600080fd5b5061019c6004803603604081101561016657600080fd5b81019080803573ffffffffffffffffffffffffffffffffffffffff16906020019092919080359060200190929190505050610579565b604051808215151515815260200191505060405180910390f35b3480156101c257600080fd5b506101cb6106cb565b6040518082815260200191505060405180910390f35b6000600154905090565b6000600360003373ffffffffffffffffffffffffffffffffffffffff1673ffffffffffffffffffffffffffffffffffffffff16815260200190815260200160002081905550606060405190810160405280600081526020016000815260200160011515815250600460003373ffffffffffffffffffffffffffffffffffffffff1673ffffffffffffffffffffffffffffffffffffffff168152602001908152602001600020600082015181600001556020820151816001015560408201518160020160006101000a81548160ff021916908315150217905550905050565b6000600460003373ffffffffffffffffffffffffffffffffffffffff1673ffffffffffffffffffffffffffffffffffffffff16815260200190815260200160002060020160009054906101000a900460ff16151561032657600080fd5b600360003373ffffffffffffffffffffffffffffffffffffffff1673ffffffffffffffffffffffffffffffffffffffff16815260200190815260200160002054905090565b6000600460003373ffffffffffffffffffffffffffffffffffffffff1673ffffffffffffffffffffffffffffffffffffffff16815260200190815260200160002060020160009054906101000a900460ff1615156103c857600080fd5b600460003373ffffffffffffffffffffffffffffffffffffffff1673ffffffffffffffffffffffffffffffffffffffff16815260200190815260200160002060000154600160008282540392505081905550600460003373ffffffffffffffffffffffffffffffffffffffff1673ffffffffffffffffffffffffffffffffffffffff1681526020019081526020016000206001015460026000828254039250508190555060606040519081016040528084815260200183815260200160011515815250600460003373ffffffffffffffffffffffffffffffffffffffff1673ffffffffffffffffffffffffffffffffffffffff168152602001908152602001600020600082015181600001556020820151816001015560408201518160020160006101000a81548160ff02191690831515021790555090505082600160008282540192505081905550816002600082825401925050819055506064600360003373ffffffffffffffffffffffffffffffffffffffff1673ffffffffffffffffffffffffffffffffffffffff168152602001908152602001600020600082825401925050819055506064905092915050565b6000600460003373ffffffffffffffffffffffffffffffffffffffff1673ffffffffffffffffffffffffffffffffffffffff16815260200190815260200160002060020160009054906101000a900460ff1615156105d657600080fd5b81600360003373ffffffffffffffffffffffffffffffffffffffff1673ffffffffffffffffffffffffffffffffffffffff16815260200190815260200160002054101561062657600090506106c5565b81600360003373ffffffffffffffffffffffffffffffffffffffff1673ffffffffffffffffffffffffffffffffffffffff1681526020019081526020016000206000828254039250508190555081600360008573ffffffffffffffffffffffffffffffffffffffff1673ffffffffffffffffffffffffffffffffffffffff16815260200190815260200160002060008282540192505081905550600190505b92915050565b600060025490509056fea165627a7a723058208be1f89ac6e7323d870aece87a0f8ee8b98aeef2feca81715f3b8fd5eb056c230029",
  "source": "pragma solidity >=0.4.25 <0.6.0;\n\ncontract SolarCoin {\n  address owner;\n  uint totalGenerated;\n  uint totalConsumed;\n\n  struct userStatistics {\n    uint generated;\n    uint consumed;\n    bool exists;\n  }\n\n  mapping (address => uint) balances;\n  mapping (address => userStatistics) stats;\n\n  constructor() public {\n    owner = msg.sender;\n  }\n\n  modifier isRegistered() {\n    require(stats[msg.sender].exists);\n    _;\n  }\n\n  function register() external {\n    balances[msg.sender] = 0;\n    stats[msg.sender] = userStatistics(0, 0, true);\n  }\n\n  function report(uint _generated, uint _consumed) external isRegistered returns(uint amount){\n    totalGenerated -= stats[msg.sender].generated;\n    totalConsumed -= stats[msg.sender].consumed;\n\n    stats[msg.sender] = userStatistics(_generated, _consumed, true);\n\n    totalGenerated += _generated;\n    totalConsumed += _consumed;\n\n    balances[msg.sender] += 100;\n    return 100;\n  }\n\n  function sendCoin(address receiver, uint amount) public isRegistered returns(bool sufficient) {\n    if (balances[msg.sender] < amount) return false;\n    balances[msg.sender] -= amount;\n    balances[receiver] += amount;\n    return true;\n  }\n\n  function getTotalConsumed() public view returns(uint) {\n    return totalConsumed;\n  }\n\n  function getTotalGenerated() public view returns(uint) {\n    return totalGenerated;\n  }\n\n  /* function getBalance(address addr) public view returns(uint) { */\n  /*   return balances[addr]; */\n  /* } */\n\n  function getMyBalance() public view isRegistered returns(uint) {\n    return balances[msg.sender];\n  }\n}\n",
  "sourcePath": "/home/rho/Documents/hackathon/project/blockchain/contracts/SolarCoin.sol",
  "compiler": {
    "name": "solc",
    "version": "0.5.0+commit.1d4f565a.Emscripten.clang"
  },
  "schemaVersion": "3.0.6",
  "updatedAt": "2019-04-12T14:13:30.442Z",
  "devdoc": {
    "methods": {}
  },
  "userdoc": {
    "methods": {}
  }
}